{"contracts/Voting.sol":{"Voting":{"abi":[{"inputs":[{"internalType":"string[]","name":"_partyNames","type":"string[]"}],"stateMutability":"nonpayable","type":"constructor"},{"anonymous":false,"inputs":[{"indexed":false,"internalType":"string","name":"name","type":"string"}],"name":"PartyAdded","type":"event"},{"anonymous":false,"inputs":[{"indexed":true,"internalType":"address","name":"voter","type":"address"},{"indexed":true,"internalType":"uint256","name":"partyIndex","type":"uint256"}],"name":"Voted","type":"event"},{"inputs":[{"internalType":"string","name":"name","type":"string"}],"name":"addParty","outputs":[],"stateMutability":"nonpayable","type":"function"},{"inputs":[],"name":"getParties","outputs":[{"internalType":"string[]","name":"names","type":"string[]"},{"internalType":"uint256[]","name":"counts","type":"uint256[]"}],"stateMutability":"view","type":"function"},{"inputs":[{"internalType":"address","name":"","type":"address"}],"name":"hasVoted","outputs":[{"internalType":"bool","name":"","type":"bool"}],"stateMutability":"view","type":"function"},{"inputs":[],"name":"owner","outputs":[{"internalType":"address","name":"","type":"address"}],"stateMutability":"view","type":"function"},{"inputs":[{"internalType":"uint256","name":"","type":"uint256"}],"name":"parties","outputs":[{"internalType":"string","name":"name","type":"string"},{"internalType":"uint256","name":"voteCount","type":"uint256"}],"stateMutability":"view","type":"function"},{"inputs":[],"name":"partyCount","outputs":[{"internalType":"uint256","name":"","type":"uint256"}],"stateMutability":"view","type":"function"},{"inputs":[{"internalType":"uint256","name":"partyIndex","type":"uint256"}],"name":"vote","outputs":[],"stateMutability":"nonpayable","type":"function"}],"evm":{"bytecode":{"linkReferences":{},"object":"60806040523480156200001157600080fd5b5060405162001b1938038062001b1983398181016040528101906200003791906200040a565b33600260006101000a81548173ffffffffffffffffffffffffffffffffffffffff021916908373ffffffffffffffffffffffffffffffffffffffff16021790555060005b8151811015620001735760006040518060400160405280848481518110620000a857620000a76200045b565b5b60200260200101518152602001600081525090806001815401808255809150506001900390600052602060002090600202016000909190919091506000820151816000019081620000fa9190620006d5565b506020820151816001015550507f4632f3a3551ffd73da26f49e84e2d47ed2e7304255f292ca21cab9a13722e9a88282815181106200013e576200013d6200045b565b5b60200260200101516040516200015591906200080e565b60405180910390a180806200016a9062000861565b9150506200007b565b5050620008ae565b6000604051905090565b600080fd5b600080fd5b600080fd5b6000601f19601f8301169050919050565b7f4e487b7100000000000000000000000000000000000000000000000000000000600052604160045260246000fd5b620001df8262000194565b810181811067ffffffffffffffff82111715620002015762000200620001a5565b5b80604052505050565b6000620002166200017b565b9050620002248282620001d4565b919050565b600067ffffffffffffffff821115620002475762000246620001a5565b5b602082029050602081019050919050565b600080fd5b600080fd5b600067ffffffffffffffff82111562000280576200027f620001a5565b5b6200028b8262000194565b9050602081019050919050565b60005b83811015620002b85780820151818401526020810190506200029b565b60008484015250505050565b6000620002db620002d58462000262565b6200020a565b905082815260208101848484011115620002fa57620002f96200025d565b5b6200030784828562000298565b509392505050565b600082601f8301126200032757620003266200018f565b5b815162000339848260208601620002c4565b91505092915050565b600062000359620003538462000229565b6200020a565b905080838252602082019050602084028301858111156200037f576200037e62000258565b5b835b81811015620003cd57805167ffffffffffffffff811115620003a857620003a76200018f565b5b808601620003b789826200030f565b8552602085019450505060208101905062000381565b5050509392505050565b600082601f830112620003ef57620003ee6200018f565b5b81516200040184826020860162000342565b91505092915050565b60006020828403121562000423576200042262000185565b5b600082015167ffffffffffffffff8111156200044457620004436200018a565b5b6200045284828501620003d7565b91505092915050565b7f4e487b7100000000000000000000000000000000000000000000000000000000600052603260045260246000fd5b600081519050919050565b7f4e487b7100000000000000000000000000000000000000000000000000000000600052602260045260246000fd5b60006002820490506001821680620004dd57607f821691505b602082108103620004f357620004f262000495565b5b50919050565b60008190508160005260206000209050919050565b60006020601f8301049050919050565b600082821b905092915050565b6000600883026200055d7fffffffffffffffffffffffffffffffffffffffffffffffffffffffffffffffff826200051e565b6200056986836200051e565b95508019841693508086168417925050509392505050565b6000819050919050565b6000819050919050565b6000620005b6620005b0620005aa8462000581565b6200058b565b62000581565b9050919050565b6000819050919050565b620005d28362000595565b620005ea620005e182620005bd565b8484546200052b565b825550505050565b600090565b62000601620005f2565b6200060e818484620005c7565b505050565b5b8181101562000636576200062a600082620005f7565b60018101905062000614565b5050565b601f82111562000685576200064f81620004f9565b6200065a846200050e565b810160208510156200066a578190505b6200068262000679856200050e565b83018262000613565b50505b505050565b600082821c905092915050565b6000620006aa600019846008026200068a565b1980831691505092915050565b6000620006c5838362000697565b9150826002028217905092915050565b620006e0826200048a565b67ffffffffffffffff811115620006fc57620006fb620001a5565b5b620007088254620004c4565b620007158282856200063a565b600060209050601f8311600181146200074d576000841562000738578287015190505b620007448582620006b7565b865550620007b4565b601f1984166200075d86620004f9565b60005b82811015620007875784890151825560018201915060208501945060208101905062000760565b86831015620007a75784890151620007a3601f89168262000697565b8355505b6001600288020188555050505b505050505050565b600082825260208201905092915050565b6000620007da826200048a565b620007e68185620007bc565b9350620007f881856020860162000298565b620008038162000194565b840191505092915050565b600060208201905081810360008301526200082a8184620007cd565b905092915050565b7f4e487b7100000000000000000000000000000000000000000000000000000000600052601160045260246000fd5b60006200086e8262000581565b91507fffffffffffffffffffffffffffffffffffffffffffffffffffffffffffffffff8203620008a357620008a262000832565b5b600182019050919050565b61125b80620008be6000396000f3fe608060405234801561001057600080fd5b506004361061007d5760003560e01c806370651a181161005b57806370651a18146100ea5780638da5cb5b1461011b5780639eb8e72514610139578063a8311aa8146101575761007d565b80630121b93f1461008257806309eef43e1461009e5780635df3e271146100ce575b600080fd5b61009c60048036038101906100979190610786565b610176565b005b6100b860048036038101906100b39190610811565b610325565b6040516100c59190610859565b60405180910390f35b6100e860048036038101906100e391906109ba565b610345565b005b61010460048036038101906100ff9190610786565b610472565b604051610112929190610a91565b60405180910390f35b61012361052e565b6040516101309190610ad0565b60405180910390f35b610141610554565b60405161014e9190610aeb565b60405180910390f35b61015f610560565b60405161016d929190610cd0565b60405180910390f35b600160003373ffffffffffffffffffffffffffffffffffffffff1673ffffffffffffffffffffffffffffffffffffffff16815260200190815260200160002060009054906101000a900460ff1615610203576040517f08c379a00000000000000000000000000000000000000000000000000000000081526004016101fa90610d53565b60405180910390fd5b600080549050811061024a576040517f08c379a000000000000000000000000000000000000000000000000000000000815260040161024190610dbf565b60405180910390fd5b60018060003373ffffffffffffffffffffffffffffffffffffffff1673ffffffffffffffffffffffffffffffffffffffff16815260200190815260200160002060006101000a81548160ff0219169083151502179055506001600082815481106102b7576102b6610ddf565b5b906000526020600020906002020160010160008282546102d79190610e3d565b92505081905550803373ffffffffffffffffffffffffffffffffffffffff167f4d99b957a2bc29a30ebd96a7be8e68fe50a3c701db28a91436490b7d53870ca460405160405180910390a350565b60016020528060005260406000206000915054906101000a900460ff1681565b600260009054906101000a900473ffffffffffffffffffffffffffffffffffffffff1673ffffffffffffffffffffffffffffffffffffffff163373ffffffffffffffffffffffffffffffffffffffff16146103d5576040517f08c379a00000000000000000000000000000000000000000000000000000000081526004016103cc90610ebd565b60405180910390fd5b6000604051806040016040528083815260200160008152509080600181540180825580915050600190039060005260206000209060020201600090919091909150600082015181600001908161042b91906110e9565b506020820151816001015550507f4632f3a3551ffd73da26f49e84e2d47ed2e7304255f292ca21cab9a13722e9a88160405161046791906111bb565b60405180910390a150565b6000818154811061048257600080fd5b90600052602060002090600202016000915090508060000180546104a590610f0c565b80601f01602080910402602001604051908101604052809291908181526020018280546104d190610f0c565b801561051e5780601f106104f35761010080835404028352916020019161051e565b820191906000526020600020905b81548152906001019060200180831161050157829003601f168201915b5050505050908060010154905082565b600260009054906101000a900473ffffffffffffffffffffffffffffffffffffffff1681565b60008080549050905090565b6060806000808054905090508067ffffffffffffffff8111156105865761058561088f565b5b6040519080825280602002602001820160405280156105b957816020015b60608152602001906001900390816105a45790505b5092508067ffffffffffffffff8111156105d6576105d561088f565b5b6040519080825280602002602001820160405280156106045781602001602082028036833780820191505090505b50915060005b81811015610736576000818154811061062657610625610ddf565b5b9060005260206000209060020201600001805461064290610f0c565b80601f016020809104026020016040519081016040528092919081815260200182805461066e90610f0c565b80156106bb5780601f10610690576101008083540402835291602001916106bb565b820191906000526020600020905b81548152906001019060200180831161069e57829003601f168201915b50505050508482815181106106d3576106d2610ddf565b5b6020026020010181905250600081815481106106f2576106f1610ddf565b5b90600052602060002090600202016001015483828151811061071757610716610ddf565b5b602002602001018181525050808061072e906111dd565b91505061060a565b50509091565b6000604051905090565b600080fd5b600080fd5b6000819050919050565b61076381610750565b811461076e57600080fd5b50565b6000813590506107808161075a565b92915050565b60006020828403121561079c5761079b610746565b5b60006107aa84828501610771565b91505092915050565b600073ffffffffffffffffffffffffffffffffffffffff82169050919050565b60006107de826107b3565b9050919050565b6107ee816107d3565b81146107f957600080fd5b50565b60008135905061080b816107e5565b92915050565b60006020828403121561082757610826610746565b5b6000610835848285016107fc565b91505092915050565b60008115159050919050565b6108538161083e565b82525050565b600060208201905061086e600083018461084a565b92915050565b600080fd5b600080fd5b6000601f19601f8301169050919050565b7f4e487b7100000000000000000000000000000000000000000000000000000000600052604160045260246000fd5b6108c78261087e565b810181811067ffffffffffffffff821117156108e6576108e561088f565b5b80604052505050565b60006108f961073c565b905061090582826108be565b919050565b600067ffffffffffffffff8211156109255761092461088f565b5b61092e8261087e565b9050602081019050919050565b82818337600083830152505050565b600061095d6109588461090a565b6108ef565b90508281526020810184848401111561097957610978610879565b5b61098484828561093b565b509392505050565b600082601f8301126109a1576109a0610874565b5b81356109b184826020860161094a565b91505092915050565b6000602082840312156109d0576109cf610746565b5b600082013567ffffffffffffffff8111156109ee576109ed61074b565b5b6109fa8482850161098c565b91505092915050565b600081519050919050565b600082825260208201905092915050565b60005b83811015610a3d578082015181840152602081019050610a22565b60008484015250505050565b6000610a5482610a03565b610a5e8185610a0e565b9350610a6e818560208601610a1f565b610a778161087e565b840191505092915050565b610a8b81610750565b82525050565b60006040820190508181036000830152610aab8185610a49565b9050610aba6020830184610a82565b9392505050565b610aca816107d3565b82525050565b6000602082019050610ae56000830184610ac1565b92915050565b6000602082019050610b006000830184610a82565b92915050565b600081519050919050565b600082825260208201905092915050565b6000819050602082019050919050565b600082825260208201905092915050565b6000610b4e82610a03565b610b588185610b32565b9350610b68818560208601610a1f565b610b718161087e565b840191505092915050565b6000610b888383610b43565b905092915050565b6000602082019050919050565b6000610ba882610b06565b610bb28185610b11565b935083602082028501610bc485610b22565b8060005b85811015610c005784840389528151610be18582610b7c565b9450610bec83610b90565b925060208a01995050600181019050610bc8565b50829750879550505050505092915050565b600081519050919050565b600082825260208201905092915050565b6000819050602082019050919050565b610c4781610750565b82525050565b6000610c598383610c3e565b60208301905092915050565b6000602082019050919050565b6000610c7d82610c12565b610c878185610c1d565b9350610c9283610c2e565b8060005b83811015610cc3578151610caa8882610c4d565b9750610cb583610c65565b925050600181019050610c96565b5085935050505092915050565b60006040820190508181036000830152610cea8185610b9d565b90508181036020830152610cfe8184610c72565b90509392505050565b7f416c726561647920766f74656400000000000000000000000000000000000000600082015250565b6000610d3d600d83610a0e565b9150610d4882610d07565b602082019050919050565b60006020820190508181036000830152610d6c81610d30565b9050919050565b7f496e76616c696420706172747920696e64657800000000000000000000000000600082015250565b6000610da9601383610a0e565b9150610db482610d73565b602082019050919050565b60006020820190508181036000830152610dd881610d9c565b9050919050565b7f4e487b7100000000000000000000000000000000000000000000000000000000600052603260045260246000fd5b7f4e487b7100000000000000000000000000000000000000000000000000000000600052601160045260246000fd5b6000610e4882610750565b9150610e5383610750565b9250828201905080821115610e6b57610e6a610e0e565b5b92915050565b7f4f6e6c79206f776e657200000000000000000000000000000000000000000000600082015250565b6000610ea7600a83610a0e565b9150610eb282610e71565b602082019050919050565b60006020820190508181036000830152610ed681610e9a565b9050919050565b7f4e487b7100000000000000000000000000000000000000000000000000000000600052602260045260246000fd5b60006002820490506001821680610f2457607f821691505b602082108103610f3757610f36610edd565b5b50919050565b60008190508160005260206000209050919050565b60006020601f8301049050919050565b600082821b905092915050565b600060088302610f9f7fffffffffffffffffffffffffffffffffffffffffffffffffffffffffffffffff82610f62565b610fa98683610f62565b95508019841693508086168417925050509392505050565b6000819050919050565b6000610fe6610fe1610fdc84610750565b610fc1565b610750565b9050919050565b6000819050919050565b61100083610fcb565b61101461100c82610fed565b848454610f6f565b825550505050565b600090565b61102961101c565b611034818484610ff7565b505050565b5b818110156110585761104d600082611021565b60018101905061103a565b5050565b601f82111561109d5761106e81610f3d565b61107784610f52565b81016020851015611086578190505b61109a61109285610f52565b830182611039565b50505b505050565b600082821c905092915050565b60006110c0600019846008026110a2565b1980831691505092915050565b60006110d983836110af565b9150826002028217905092915050565b6110f282610a03565b67ffffffffffffffff81111561110b5761110a61088f565b5b6111158254610f0c565b61112082828561105c565b600060209050601f8311600181146111535760008415611141578287015190505b61114b85826110cd565b8655506111b3565b601f19841661116186610f3d565b60005b8281101561118957848901518255600182019150602085019450602081019050611164565b868310156111a657848901516111a2601f8916826110af565b8355505b6001600288020188555050505b505050505050565b600060208201905081810360008301526111d58184610a49565b905092915050565b60006111e882610750565b91507fffffffffffffffffffffffffffffffffffffffffffffffffffffffffffffffff820361121a57611219610e0e565b5b60018201905091905056fea2646970667358221220e3b65dc0b3a9d17f59478e4d02fda4b7a6a72edf3d279b528500e6f009167eaa64736f6c63430008130033","opcodes":"PUSH1 0x80 PUSH1 0x40 MSTORE CALLVALUE DUP1 ISZERO PUSH3 0x11 JUMPI PUSH1 0x0 DUP1 REVERT JUMPDEST POP PUSH1 0x40 MLOAD PUSH3 0x1B19 CODESIZE SUB DUP1 PUSH3 0x1B19 DUP4 CODECOPY DUP2 DUP2 ADD PUSH1 0x40 MSTORE DUP2 ADD SWAP1 PUSH3 0x37 SWAP2 SWAP1 PUSH3 0x40A JUMP JUMPDEST CALLER PUSH1 0x2 PUSH1 0x0 PUSH2 0x100 EXP DUP2 SLOAD DUP2 PUSH20 0xFFFFFFFFFFFFFFFFFFFFFFFFFFFFFFFFFFFFFFFF MUL NOT AND SWAP1 DUP4 PUSH20 0xFFFFFFFFFFFFFFFFFFFFFFFFFFFFFFFFFFFFFFFF AND MUL OR SWAP1 SSTORE POP PUSH1 0x0 JUMPDEST DUP2 MLOAD DUP2 LT ISZERO PUSH3 0x173 JUMPI PUSH1 0x0 PUSH1 0x40 MLOAD DUP1 PUSH1 0x40 ADD PUSH1 0x40 MSTORE DUP1 DUP5 DUP5 DUP2 MLOAD DUP2 LT PUSH3 0xA8 JUMPI PUSH3 0xA7 PUSH3 0x45B JUMP JUMPDEST JUMPDEST PUSH1 0x20 MUL PUSH1 0x20 ADD ADD MLOAD DUP2 MSTORE PUSH1 0x20 ADD PUSH1 0x0 DUP2 MSTORE POP SWAP1 DUP1 PUSH1 0x1 DUP2 SLOAD ADD DUP1 DUP3 SSTORE DUP1 SWAP2 POP POP PUSH1 0x1 SWAP1 SUB SWAP1 PUSH1 0x0 MSTORE PUSH1 0x20 PUSH1 0x0 KECCAK256 SWAP1 PUSH1 0x2 MUL ADD PUSH1 0x0 SWAP1 SWAP2 SWAP1 SWAP2 SWAP1 SWAP2 POP PUSH1 0x0 DUP3 ADD MLOAD DUP2 PUSH1 0x0 ADD SWAP1 DUP2 PUSH3 0xFA SWAP2 SWAP1 PUSH3 0x6D5 JUMP JUMPDEST POP PUSH1 0x20 DUP3 ADD MLOAD DUP2 PUSH1 0x1 ADD SSTORE POP POP PUSH32 0x4632F3A3551FFD73DA26F49E84E2D47ED2E7304255F292CA21CAB9A13722E9A8 DUP3 DUP3 DUP2 MLOAD DUP2 LT PUSH3 0x13E JUMPI PUSH3 0x13D PUSH3 0x45B JUMP JUMPDEST JUMPDEST PUSH1 0x20 MUL PUSH1 0x20 ADD ADD MLOAD PUSH1 0x40 MLOAD PUSH3 0x155 SWAP2 SWAP1 PUSH3 0x80E JUMP JUMPDEST PUSH1 0x40 MLOAD DUP1 SWAP2 SUB SWAP1 LOG1 DUP1 DUP1 PUSH3 0x16A SWAP1 PUSH3 0x861 JUMP JUMPDEST SWAP2 POP POP PUSH3 0x7B JUMP JUMPDEST POP POP PUSH3 0x8AE JUMP JUMPDEST PUSH1 0x0 PUSH1 0x40 MLOAD SWAP1 POP SWAP1 JUMP JUMPDEST PUSH1 0x0 DUP1 REVERT JUMPDEST PUSH1 0x0 DUP1 REVERT JUMPDEST PUSH1 0x0 DUP1 REVERT JUMPDEST PUSH1 0x0 PUSH1 0x1F NOT PUSH1 0x1F DUP4 ADD AND SWAP1 POP SWAP2 SWAP1 POP JUMP JUMPDEST PUSH32 0x4E487B7100000000000000000000000000000000000000000000000000000000 PUSH1 0x0 MSTORE PUSH1 0x41 PUSH1 0x4 MSTORE PUSH1 0x24 PUSH1 0x0 REVERT JUMPDEST PUSH3 0x1DF DUP3 PUSH3 0x194 JUMP JUMPDEST DUP2 ADD DUP2 DUP2 LT PUSH8 0xFFFFFFFFFFFFFFFF DUP3 GT OR ISZERO PUSH3 0x201 JUMPI PUSH3 0x200 PUSH3 0x1A5 JUMP JUMPDEST JUMPDEST DUP1 PUSH1 0x40 MSTORE POP POP POP JUMP JUMPDEST PUSH1 0x0 PUSH3 0x216 PUSH3 0x17B JUMP JUMPDEST SWAP1 POP PUSH3 0x224 DUP3 DUP3 PUSH3 0x1D4 JUMP JUMPDEST SWAP2 SWAP1 POP JUMP JUMPDEST PUSH1 0x0 PUSH8 0xFFFFFFFFFFFFFFFF DUP3 GT ISZERO PUSH3 0x247 JUMPI PUSH3 0x246 PUSH3 0x1A5 JUMP JUMPDEST JUMPDEST PUSH1 0x20 DUP3 MUL SWAP1 POP PUSH1 0x20 DUP2 ADD SWAP1 POP SWAP2 SWAP1 POP JUMP JUMPDEST PUSH1 0x0 DUP1 REVERT JUMPDEST PUSH1 0x0 DUP1 REVERT JUMPDEST PUSH1 0x0 PUSH8 0xFFFFFFFFFFFFFFFF DUP3 GT ISZERO PUSH3 0x280 JUMPI PUSH3 0x27F PUSH3 0x1A5 JUMP JUMPDEST JUMPDEST PUSH3 0x28B DUP3 PUSH3 0x194 JUMP JUMPDEST SWAP1 POP PUSH1 0x20 DUP2 ADD SWAP1 POP SWAP2 SWAP1 POP JUMP JUMPDEST PUSH1 0x0 JUMPDEST DUP4 DUP2 LT ISZERO PUSH3 0x2B8 JUMPI DUP1 DUP3 ADD MLOAD DUP2 DUP5 ADD MSTORE PUSH1 0x20 DUP2 ADD SWAP1 POP PUSH3 0x29B JUMP JUMPDEST PUSH1 0x0 DUP5 DUP5 ADD MSTORE POP POP POP POP JUMP JUMPDEST PUSH1 0x0 PUSH3 0x2DB PUSH3 0x2D5 DUP5 PUSH3 0x262 JUMP JUMPDEST PUSH3 0x20A JUMP JUMPDEST SWAP1 POP DUP3 DUP2 MSTORE PUSH1 0x20 DUP2 ADD DUP5 DUP5 DUP5 ADD GT ISZERO PUSH3 0x2FA JUMPI PUSH3 0x2F9 PUSH3 0x25D JUMP JUMPDEST JUMPDEST PUSH3 0x307 DUP5 DUP3 DUP6 PUSH3 0x298 JUMP JUMPDEST POP SWAP4 SWAP3 POP POP POP JUMP JUMPDEST PUSH1 0x0 DUP3 PUSH1 0x1F DUP4 ADD SLT PUSH3 0x327 JUMPI PUSH3 0x326 PUSH3 0x18F JUMP JUMPDEST JUMPDEST DUP2 MLOAD PUSH3 0x339 DUP5 DUP3 PUSH1 0x20 DUP7 ADD PUSH3 0x2C4 JUMP JUMPDEST SWAP2 POP POP SWAP3 SWAP2 POP POP JUMP JUMPDEST PUSH1 0x0 PUSH3 0x359 PUSH3 0x353 DUP5 PUSH3 0x229 JUMP JUMPDEST PUSH3 0x20A JUMP JUMPDEST SWAP1 POP DUP1 DUP4 DUP3 MSTORE PUSH1 0x20 DUP3 ADD SWAP1 POP PUSH1 0x20 DUP5 MUL DUP4 ADD DUP6 DUP2 GT ISZERO PUSH3 0x37F JUMPI PUSH3 0x37E PUSH3 0x258 JUMP JUMPDEST JUMPDEST DUP4 JUMPDEST DUP2 DUP2 LT ISZERO PUSH3 0x3CD JUMPI DUP1 MLOAD PUSH8 0xFFFFFFFFFFFFFFFF DUP2 GT ISZERO PUSH3 0x3A8 JUMPI PUSH3 0x3A7 PUSH3 0x18F JUMP JUMPDEST JUMPDEST DUP1 DUP7 ADD PUSH3 0x3B7 DUP10 DUP3 PUSH3 0x30F JUMP JUMPDEST DUP6 MSTORE PUSH1 0x20 DUP6 ADD SWAP5 POP POP POP PUSH1 0x20 DUP2 ADD SWAP1 POP PUSH3 0x381 JUMP JUMPDEST POP POP POP SWAP4 SWAP3 POP POP POP JUMP JUMPDEST PUSH1 0x0 DUP3 PUSH1 0x1F DUP4 ADD SLT PUSH3 0x3EF JUMPI PUSH3 0x3EE PUSH3 0x18F JUMP JUMPDEST JUMPDEST DUP2 MLOAD PUSH3 0x401 DUP5 DUP3 PUSH1 0x20 DUP7 ADD PUSH3 0x342 JUMP JUMPDEST SWAP2 POP POP SWAP3 SWAP2 POP POP JUMP JUMPDEST PUSH1 0x0 PUSH1 0x20 DUP3 DUP5 SUB SLT ISZERO PUSH3 0x423 JUMPI PUSH3 0x422 PUSH3 0x185 JUMP JUMPDEST JUMPDEST PUSH1 0x0 DUP3 ADD MLOAD PUSH8 0xFFFFFFFFFFFFFFFF DUP2 GT ISZERO PUSH3 0x444 JUMPI PUSH3 0x443 PUSH3 0x18A JUMP JUMPDEST JUMPDEST PUSH3 0x452 DUP5 DUP3 DUP6 ADD PUSH3 0x3D7 JUMP JUMPDEST SWAP2 POP POP SWAP3 SWAP2 POP POP JUMP JUMPDEST PUSH32 0x4E487B7100000000000000000000000000000000000000000000000000000000 PUSH1 0x0 MSTORE PUSH1 0x32 PUSH1 0x4 MSTORE PUSH1 0x24 PUSH1 0x0 REVERT JUMPDEST PUSH1 0x0 DUP2 MLOAD SWAP1 POP SWAP2 SWAP1 POP JUMP JUMPDEST PUSH32 0x4E487B7100000000000000000000000000000000000000000000000000000000 PUSH1 0x0 MSTORE PUSH1 0x22 PUSH1 0x4 MSTORE PUSH1 0x24 PUSH1 0x0 REVERT JUMPDEST PUSH1 0x0 PUSH1 0x2 DUP3 DIV SWAP1 POP PUSH1 0x1 DUP3 AND DUP1 PUSH3 0x4DD JUMPI PUSH1 0x7F DUP3 AND SWAP2 POP JUMPDEST PUSH1 0x20 DUP3 LT DUP2 SUB PUSH3 0x4F3 JUMPI PUSH3 0x4F2 PUSH3 0x495 JUMP JUMPDEST JUMPDEST POP SWAP2 SWAP1 POP JUMP JUMPDEST PUSH1 0x0 DUP2 SWAP1 POP DUP2 PUSH1 0x0 MSTORE PUSH1 0x20 PUSH1 0x0 KECCAK256 SWAP1 POP SWAP2 SWAP1 POP JUMP JUMPDEST PUSH1 0x0 PUSH1 0x20 PUSH1 0x1F DUP4 ADD DIV SWAP1 POP SWAP2 SWAP1 POP JUMP JUMPDEST PUSH1 0x0 DUP3 DUP3 SHL SWAP1 POP SWAP3 SWAP2 POP POP JUMP JUMPDEST PUSH1 0x0 PUSH1 0x8 DUP4 MUL PUSH3 0x55D PUSH32 0xFFFFFFFFFFFFFFFFFFFFFFFFFFFFFFFFFFFFFFFFFFFFFFFFFFFFFFFFFFFFFFFF DUP3 PUSH3 0x51E JUMP JUMPDEST PUSH3 0x569 DUP7 DUP4 PUSH3 0x51E JUMP JUMPDEST SWAP6 POP DUP1 NOT DUP5 AND SWAP4 POP DUP1 DUP7 AND DUP5 OR SWAP3 POP POP POP SWAP4 SWAP3 POP POP POP JUMP JUMPDEST PUSH1 0x0 DUP2 SWAP1 POP SWAP2 SWAP1 POP JUMP JUMPDEST PUSH1 0x0 DUP2 SWAP1 POP SWAP2 SWAP1 POP JUMP JUMPDEST PUSH1 0x0 PUSH3 0x5B6 PUSH3 0x5B0 PUSH3 0x5AA DUP5 PUSH3 0x581 JUMP JUMPDEST PUSH3 0x58B JUMP JUMPDEST PUSH3 0x581 JUMP JUMPDEST SWAP1 POP SWAP2 SWAP1 POP JUMP JUMPDEST PUSH1 0x0 DUP2 SWAP1 POP SWAP2 SWAP1 POP JUMP JUMPDEST PUSH3 0x5D2 DUP4 PUSH3 0x595 JUMP JUMPDEST PUSH3 0x5EA PUSH3 0x5E1 DUP3 PUSH3 0x5BD JUMP JUMPDEST DUP5 DUP5 SLOAD PUSH3 0x52B JUMP JUMPDEST DUP3 SSTORE POP POP POP POP JUMP JUMPDEST PUSH1 0x0 SWAP1 JUMP JUMPDEST PUSH3 0x601 PUSH3 0x5F2 JUMP JUMPDEST PUSH3 0x60E DUP2 DUP5 DUP5 PUSH3 0x5C7 JUMP JUMPDEST POP POP POP JUMP JUMPDEST JUMPDEST DUP2 DUP2 LT ISZERO PUSH3 0x636 JUMPI PUSH3 0x62A PUSH1 0x0 DUP3 PUSH3 0x5F7 JUMP JUMPDEST PUSH1 0x1 DUP2 ADD SWAP1 POP PUSH3 0x614 JUMP JUMPDEST POP POP JUMP JUMPDEST PUSH1 0x1F DUP3 GT ISZERO PUSH3 0x685 JUMPI PUSH3 0x64F DUP2 PUSH3 0x4F9 JUMP JUMPDEST PUSH3 0x65A DUP5 PUSH3 0x50E JUMP JUMPDEST DUP2 ADD PUSH1 0x20 DUP6 LT ISZERO PUSH3 0x66A JUMPI DUP2 SWAP1 POP JUMPDEST PUSH3 0x682 PUSH3 0x679 DUP6 PUSH3 0x50E JUMP JUMPDEST DUP4 ADD DUP3 PUSH3 0x613 JUMP JUMPDEST POP POP JUMPDEST POP POP POP JUMP JUMPDEST PUSH1 0x0 DUP3 DUP3 SHR SWAP1 POP SWAP3 SWAP2 POP POP JUMP JUMPDEST PUSH1 0x0 PUSH3 0x6AA PUSH1 0x0 NOT DUP5 PUSH1 0x8 MUL PUSH3 0x68A JUMP JUMPDEST NOT DUP1 DUP4 AND SWAP2 POP POP SWAP3 SWAP2 POP POP JUMP JUMPDEST PUSH1 0x0 PUSH3 0x6C5 DUP4 DUP4 PUSH3 0x697 JUMP JUMPDEST SWAP2 POP DUP3 PUSH1 0x2 MUL DUP3 OR SWAP1 POP SWAP3 SWAP2 POP POP JUMP JUMPDEST PUSH3 0x6E0 DUP3 PUSH3 0x48A JUMP JUMPDEST PUSH8 0xFFFFFFFFFFFFFFFF DUP2 GT ISZERO PUSH3 0x6FC JUMPI PUSH3 0x6FB PUSH3 0x1A5 JUMP JUMPDEST JUMPDEST PUSH3 0x708 DUP3 SLOAD PUSH3 0x4C4 JUMP JUMPDEST PUSH3 0x715 DUP3 DUP3 DUP6 PUSH3 0x63A JUMP JUMPDEST PUSH1 0x0 PUSH1 0x20 SWAP1 POP PUSH1 0x1F DUP4 GT PUSH1 0x1 DUP2 EQ PUSH3 0x74D JUMPI PUSH1 0x0 DUP5 ISZERO PUSH3 0x738 JUMPI DUP3 DUP8 ADD MLOAD SWAP1 POP JUMPDEST PUSH3 0x744 DUP6 DUP3 PUSH3 0x6B7 JUMP JUMPDEST DUP7 SSTORE POP PUSH3 0x7B4 JUMP JUMPDEST PUSH1 0x1F NOT DUP5 AND PUSH3 0x75D DUP7 PUSH3 0x4F9 JUMP JUMPDEST PUSH1 0x0 JUMPDEST DUP3 DUP2 LT ISZERO PUSH3 0x787 JUMPI DUP5 DUP10 ADD MLOAD DUP3 SSTORE PUSH1 0x1 DUP3 ADD SWAP2 POP PUSH1 0x20 DUP6 ADD SWAP5 POP PUSH1 0x20 DUP2 ADD SWAP1 POP PUSH3 0x760 JUMP JUMPDEST DUP7 DUP4 LT ISZERO PUSH3 0x7A7 JUMPI DUP5 DUP10 ADD MLOAD PUSH3 0x7A3 PUSH1 0x1F DUP10 AND DUP3 PUSH3 0x697 JUMP JUMPDEST DUP4 SSTORE POP JUMPDEST PUSH1 0x1 PUSH1 0x2 DUP9 MUL ADD DUP9 SSTORE POP POP POP JUMPDEST POP POP POP POP POP POP JUMP JUMPDEST PUSH1 0x0 DUP3 DUP3 MSTORE PUSH1 0x20 DUP3 ADD SWAP1 POP SWAP3 SWAP2 POP POP JUMP JUMPDEST PUSH1 0x0 PUSH3 0x7DA DUP3 PUSH3 0x48A JUMP JUMPDEST PUSH3 0x7E6 DUP2 DUP6 PUSH3 0x7BC JUMP JUMPDEST SWAP4 POP PUSH3 0x7F8 DUP2 DUP6 PUSH1 0x20 DUP7 ADD PUSH3 0x298 JUMP JUMPDEST PUSH3 0x803 DUP2 PUSH3 0x194 JUMP JUMPDEST DUP5 ADD SWAP2 POP POP SWAP3 SWAP2 POP POP JUMP JUMPDEST PUSH1 0x0 PUSH1 0x20 DUP3 ADD SWAP1 POP DUP2 DUP2 SUB PUSH1 0x0 DUP4 ADD MSTORE PUSH3 0x82A DUP2 DUP5 PUSH3 0x7CD JUMP JUMPDEST SWAP1 POP SWAP3 SWAP2 POP POP JUMP JUMPDEST PUSH32 0x4E487B7100000000000000000000000000000000000000000000000000000000 PUSH1 0x0 MSTORE PUSH1 0x11 PUSH1 0x4 MSTORE PUSH1 0x24 PUSH1 0x0 REVERT JUMPDEST PUSH1 0x0 PUSH3 0x86E DUP3 PUSH3 0x581 JUMP JUMPDEST SWAP2 POP PUSH32 0xFFFFFFFFFFFFFFFFFFFFFFFFFFFFFFFFFFFFFFFFFFFFFFFFFFFFFFFFFFFFFFFF DUP3 SUB PUSH3 0x8A3 JUMPI PUSH3 0x8A2 PUSH3 0x832 JUMP JUMPDEST JUMPDEST PUSH1 0x1 DUP3 ADD SWAP1 POP SWAP2 SWAP1 POP JUMP JUMPDEST PUSH2 0x125B DUP1 PUSH3 0x8BE PUSH1 0x0 CODECOPY PUSH1 0x0 RETURN INVALID PUSH1 0x80 PUSH1 0x40 MSTORE CALLVALUE DUP1 ISZERO PUSH2 0x10 JUMPI PUSH1 0x0 DUP1 REVERT JUMPDEST POP PUSH1 0x4 CALLDATASIZE LT PUSH2 0x7D JUMPI PUSH1 0x0 CALLDATALOAD PUSH1 0xE0 SHR DUP1 PUSH4 0x70651A18 GT PUSH2 0x5B JUMPI DUP1 PUSH4 0x70651A18 EQ PUSH2 0xEA JUMPI DUP1 PUSH4 0x8DA5CB5B EQ PUSH2 0x11B JUMPI DUP1 PUSH4 0x9EB8E725 EQ PUSH2 0x139 JUMPI DUP1 PUSH4 0xA8311AA8 EQ PUSH2 0x157 JUMPI PUSH2 0x7D JUMP JUMPDEST DUP1 PUSH4 0x121B93F EQ PUSH2 0x82 JUMPI DUP1 PUSH4 0x9EEF43E EQ PUSH2 0x9E JUMPI DUP1 PUSH4 0x5DF3E271 EQ PUSH2 0xCE JUMPI JUMPDEST PUSH1 0x0 DUP1 REVERT JUMPDEST PUSH2 0x9C PUSH1 0x4 DUP1 CALLDATASIZE SUB DUP2 ADD SWAP1 PUSH2 0x97 SWAP2 SWAP1 PUSH2 0x786 JUMP JUMPDEST PUSH2 0x176 JUMP JUMPDEST STOP JUMPDEST PUSH2 0xB8 PUSH1 0x4 DUP1 CALLDATASIZE SUB DUP2 ADD SWAP1 PUSH2 0xB3 SWAP2 SWAP1 PUSH2 0x811 JUMP JUMPDEST PUSH2 0x325 JUMP JUMPDEST PUSH1 0x40 MLOAD PUSH2 0xC5 SWAP2 SWAP1 PUSH2 0x859 JUMP JUMPDEST PUSH1 0x40 MLOAD DUP1 SWAP2 SUB SWAP1 RETURN JUMPDEST PUSH2 0xE8 PUSH1 0x4 DUP1 CALLDATASIZE SUB DUP2 ADD SWAP1 PUSH2 0xE3 SWAP2 SWAP1 PUSH2 0x9BA JUMP JUMPDEST PUSH2 0x345 JUMP JUMPDEST STOP JUMPDEST PUSH2 0x104 PUSH1 0x4 DUP1 CALLDATASIZE SUB DUP2 ADD SWAP1 PUSH2 0xFF SWAP2 SWAP1 PUSH2 0x786 JUMP JUMPDEST PUSH2 0x472 JUMP JUMPDEST PUSH1 0x40 MLOAD PUSH2 0x112 SWAP3 SWAP2 SWAP1 PUSH2 0xA91 JUMP JUMPDEST PUSH1 0x40 MLOAD DUP1 SWAP2 SUB SWAP1 RETURN JUMPDEST PUSH2 0x123 PUSH2 0x52E JUMP JUMPDEST PUSH1 0x40 MLOAD PUSH2 0x130 SWAP2 SWAP1 PUSH2 0xAD0 JUMP JUMPDEST PUSH1 0x40 MLOAD DUP1 SWAP2 SUB SWAP1 RETURN JUMPDEST PUSH2 0x141 PUSH2 0x554 JUMP JUMPDEST PUSH1 0x40 MLOAD PUSH2 0x14E SWAP2 SWAP1 PUSH2 0xAEB JUMP JUMPDEST PUSH1 0x40 MLOAD DUP1 SWAP2 SUB SWAP1 RETURN JUMPDEST PUSH2 0x15F PUSH2 0x560 JUMP JUMPDEST PUSH1 0x40 MLOAD PUSH2 0x16D SWAP3 SWAP2 SWAP1 PUSH2 0xCD0 JUMP JUMPDEST PUSH1 0x40 MLOAD DUP1 SWAP2 SUB SWAP1 RETURN JUMPDEST PUSH1 0x1 PUSH1 0x0 CALLER PUSH20 0xFFFFFFFFFFFFFFFFFFFFFFFFFFFFFFFFFFFFFFFF AND PUSH20 0xFFFFFFFFFFFFFFFFFFFFFFFFFFFFFFFFFFFFFFFF AND DUP2 MSTORE PUSH1 0x20 ADD SWAP1 DUP2 MSTORE PUSH1 0x20 ADD PUSH1 0x0 KECCAK256 PUSH1 0x0 SWAP1 SLOAD SWAP1 PUSH2 0x100 EXP SWAP1 DIV PUSH1 0xFF AND ISZERO PUSH2 0x203 JUMPI PUSH1 0x40 MLOAD PUSH32 0x8C379A000000000000000000000000000000000000000000000000000000000 DUP2 MSTORE PUSH1 0x4 ADD PUSH2 0x1FA SWAP1 PUSH2 0xD53 JUMP JUMPDEST PUSH1 0x40 MLOAD DUP1 SWAP2 SUB SWAP1 REVERT JUMPDEST PUSH1 0x0 DUP1 SLOAD SWAP1 POP DUP2 LT PUSH2 0x24A JUMPI PUSH1 0x40 MLOAD PUSH32 0x8C379A000000000000000000000000000000000000000000000000000000000 DUP2 MSTORE PUSH1 0x4 ADD PUSH2 0x241 SWAP1 PUSH2 0xDBF JUMP JUMPDEST PUSH1 0x40 MLOAD DUP1 SWAP2 SUB SWAP1 REVERT JUMPDEST PUSH1 0x1 DUP1 PUSH1 0x0 CALLER PUSH20 0xFFFFFFFFFFFFFFFFFFFFFFFFFFFFFFFFFFFFFFFF AND PUSH20 0xFFFFFFFFFFFFFFFFFFFFFFFFFFFFFFFFFFFFFFFF AND DUP2 MSTORE PUSH1 0x20 ADD SWAP1 DUP2 MSTORE PUSH1 0x20 ADD PUSH1 0x0 KECCAK256 PUSH1 0x0 PUSH2 0x100 EXP DUP2 SLOAD DUP2 PUSH1 0xFF MUL NOT AND SWAP1 DUP4 ISZERO ISZERO MUL OR SWAP1 SSTORE POP PUSH1 0x1 PUSH1 0x0 DUP3 DUP2 SLOAD DUP2 LT PUSH2 0x2B7 JUMPI PUSH2 0x2B6 PUSH2 0xDDF JUMP JUMPDEST JUMPDEST SWAP1 PUSH1 0x0 MSTORE PUSH1 0x20 PUSH1 0x0 KECCAK256 SWAP1 PUSH1 0x2 MUL ADD PUSH1 0x1 ADD PUSH1 0x0 DUP3 DUP3 SLOAD PUSH2 0x2D7 SWAP2 SWAP1 PUSH2 0xE3D JUMP JUMPDEST SWAP3 POP POP DUP2 SWAP1 SSTORE POP DUP1 CALLER PUSH20 0xFFFFFFFFFFFFFFFFFFFFFFFFFFFFFFFFFFFFFFFF AND PUSH32 0x4D99B957A2BC29A30EBD96A7BE8E68FE50A3C701DB28A91436490B7D53870CA4 PUSH1 0x40 MLOAD PUSH1 0x40 MLOAD DUP1 SWAP2 SUB SWAP1 LOG3 POP JUMP JUMPDEST PUSH1 0x1 PUSH1 0x20 MSTORE DUP1 PUSH1 0x0 MSTORE PUSH1 0x40 PUSH1 0x0 KECCAK256 PUSH1 0x0 SWAP2 POP SLOAD SWAP1 PUSH2 0x100 EXP SWAP1 DIV PUSH1 0xFF AND DUP2 JUMP JUMPDEST PUSH1 0x2 PUSH1 0x0 SWAP1 SLOAD SWAP1 PUSH2 0x100 EXP SWAP1 DIV PUSH20 0xFFFFFFFFFFFFFFFFFFFFFFFFFFFFFFFFFFFFFFFF AND PUSH20 0xFFFFFFFFFFFFFFFFFFFFFFFFFFFFFFFFFFFFFFFF AND CALLER PUSH20 0xFFFFFFFFFFFFFFFFFFFFFFFFFFFFFFFFFFFFFFFF AND EQ PUSH2 0x3D5 JUMPI PUSH1 0x40 MLOAD PUSH32 0x8C379A000000000000000000000000000000000000000000000000000000000 DUP2 MSTORE PUSH1 0x4 ADD PUSH2 0x3CC SWAP1 PUSH2 0xEBD JUMP JUMPDEST PUSH1 0x40 MLOAD DUP1 SWAP2 SUB SWAP1 REVERT JUMPDEST PUSH1 0x0 PUSH1 0x40 MLOAD DUP1 PUSH1 0x40 ADD PUSH1 0x40 MSTORE DUP1 DUP4 DUP2 MSTORE PUSH1 0x20 ADD PUSH1 0x0 DUP2 MSTORE POP SWAP1 DUP1 PUSH1 0x1 DUP2 SLOAD ADD DUP1 DUP3 SSTORE DUP1 SWAP2 POP POP PUSH1 0x1 SWAP1 SUB SWAP1 PUSH1 0x0 MSTORE PUSH1 0x20 PUSH1 0x0 KECCAK256 SWAP1 PUSH1 0x2 MUL ADD PUSH1 0x0 SWAP1 SWAP2 SWAP1 SWAP2 SWAP1 SWAP2 POP PUSH1 0x0 DUP3 ADD MLOAD DUP2 PUSH1 0x0 ADD SWAP1 DUP2 PUSH2 0x42B SWAP2 SWAP1 PUSH2 0x10E9 JUMP JUMPDEST POP PUSH1 0x20 DUP3 ADD MLOAD DUP2 PUSH1 0x1 ADD SSTORE POP POP PUSH32 0x4632F3A3551FFD73DA26F49E84E2D47ED2E7304255F292CA21CAB9A13722E9A8 DUP2 PUSH1 0x40 MLOAD PUSH2 0x467 SWAP2 SWAP1 PUSH2 0x11BB JUMP JUMPDEST PUSH1 0x40 MLOAD DUP1 SWAP2 SUB SWAP1 LOG1 POP JUMP JUMPDEST PUSH1 0x0 DUP2 DUP2 SLOAD DUP2 LT PUSH2 0x482 JUMPI PUSH1 0x0 DUP1 REVERT JUMPDEST SWAP1 PUSH1 0x0 MSTORE PUSH1 0x20 PUSH1 0x0 KECCAK256 SWAP1 PUSH1 0x2 MUL ADD PUSH1 0x0 SWAP2 POP SWAP1 POP DUP1 PUSH1 0x0 ADD DUP1 SLOAD PUSH2 0x4A5 SWAP1 PUSH2 0xF0C JUMP JUMPDEST DUP1 PUSH1 0x1F ADD PUSH1 0x20 DUP1 SWAP2 DIV MUL PUSH1 0x20 ADD PUSH1 0x40 MLOAD SWAP1 DUP2 ADD PUSH1 0x40 MSTORE DUP1 SWAP3 SWAP2 SWAP1 DUP2 DUP2 MSTORE PUSH1 0x20 ADD DUP3 DUP1 SLOAD PUSH2 0x4D1 SWAP1 PUSH2 0xF0C JUMP JUMPDEST DUP1 ISZERO PUSH2 0x51E JUMPI DUP1 PUSH1 0x1F LT PUSH2 0x4F3 JUMPI PUSH2 0x100 DUP1 DUP4 SLOAD DIV MUL DUP4 MSTORE SWAP2 PUSH1 0x20 ADD SWAP2 PUSH2 0x51E JUMP JUMPDEST DUP3 ADD SWAP2 SWAP1 PUSH1 0x0 MSTORE PUSH1 0x20 PUSH1 0x0 KECCAK256 SWAP1 JUMPDEST DUP2 SLOAD DUP2 MSTORE SWAP1 PUSH1 0x1 ADD SWAP1 PUSH1 0x20 ADD DUP1 DUP4 GT PUSH2 0x501 JUMPI DUP3 SWAP1 SUB PUSH1 0x1F AND DUP3 ADD SWAP2 JUMPDEST POP POP POP POP POP SWAP1 DUP1 PUSH1 0x1 ADD SLOAD SWAP1 POP DUP3 JUMP JUMPDEST PUSH1 0x2 PUSH1 0x0 SWAP1 SLOAD SWAP1 PUSH2 0x100 EXP SWAP1 DIV PUSH20 0xFFFFFFFFFFFFFFFFFFFFFFFFFFFFFFFFFFFFFFFF AND DUP2 JUMP JUMPDEST PUSH1 0x0 DUP1 DUP1 SLOAD SWAP1 POP SWAP1 POP SWAP1 JUMP JUMPDEST PUSH1 0x60 DUP1 PUSH1 0x0 DUP1 DUP1 SLOAD SWAP1 POP SWAP1 POP DUP1 PUSH8 0xFFFFFFFFFFFFFFFF DUP2 GT ISZERO PUSH2 0x586 JUMPI PUSH2 0x585 PUSH2 0x88F JUMP JUMPDEST JUMPDEST PUSH1 0x40 MLOAD SWAP1 DUP1 DUP3 MSTORE DUP1 PUSH1 0x20 MUL PUSH1 0x20 ADD DUP3 ADD PUSH1 0x40 MSTORE DUP1 ISZERO PUSH2 0x5B9 JUMPI DUP2 PUSH1 0x20 ADD JUMPDEST PUSH1 0x60 DUP2 MSTORE PUSH1 0x20 ADD SWAP1 PUSH1 0x1 SWAP1 SUB SWAP1 DUP2 PUSH2 0x5A4 JUMPI SWAP1 POP JUMPDEST POP SWAP3 POP DUP1 PUSH8 0xFFFFFFFFFFFFFFFF DUP2 GT ISZERO PUSH2 0x5D6 JUMPI PUSH2 0x5D5 PUSH2 0x88F JUMP JUMPDEST JUMPDEST PUSH1 0x40 MLOAD SWAP1 DUP1 DUP3 MSTORE DUP1 PUSH1 0x20 MUL PUSH1 0x20 ADD DUP3 ADD PUSH1 0x40 MSTORE DUP1 ISZERO PUSH2 0x604 JUMPI DUP2 PUSH1 0x20 ADD PUSH1 0x20 DUP3 MUL DUP1 CALLDATASIZE DUP4 CALLDATACOPY DUP1 DUP3 ADD SWAP2 POP POP SWAP1 POP JUMPDEST POP SWAP2 POP PUSH1 0x0 JUMPDEST DUP2 DUP2 LT ISZERO PUSH2 0x736 JUMPI PUSH1 0x0 DUP2 DUP2 SLOAD DUP2 LT PUSH2 0x626 JUMPI PUSH2 0x625 PUSH2 0xDDF JUMP JUMPDEST JUMPDEST SWAP1 PUSH1 0x0 MSTORE PUSH1 0x20 PUSH1 0x0 KECCAK256 SWAP1 PUSH1 0x2 MUL ADD PUSH1 0x0 ADD DUP1 SLOAD PUSH2 0x642 SWAP1 PUSH2 0xF0C JUMP JUMPDEST DUP1 PUSH1 0x1F ADD PUSH1 0x20 DUP1 SWAP2 DIV MUL PUSH1 0x20 ADD PUSH1 0x40 MLOAD SWAP1 DUP2 ADD PUSH1 0x40 MSTORE DUP1 SWAP3 SWAP2 SWAP1 DUP2 DUP2 MSTORE PUSH1 0x20 ADD DUP3 DUP1 SLOAD PUSH2 0x66E SWAP1 PUSH2 0xF0C JUMP JUMPDEST DUP1 ISZERO PUSH2 0x6BB JUMPI DUP1 PUSH1 0x1F LT PUSH2 0x690 JUMPI PUSH2 0x100 DUP1 DUP4 SLOAD DIV MUL DUP4 MSTORE SWAP2 PUSH1 0x20 ADD SWAP2 PUSH2 0x6BB JUMP JUMPDEST DUP3 ADD SWAP2 SWAP1 PUSH1 0x0 MSTORE PUSH1 0x20 PUSH1 0x0 KECCAK256 SWAP1 JUMPDEST DUP2 SLOAD DUP2 MSTORE SWAP1 PUSH1 0x1 ADD SWAP1 PUSH1 0x20 ADD DUP1 DUP4 GT PUSH2 0x69E JUMPI DUP3 SWAP1 SUB PUSH1 0x1F AND DUP3 ADD SWAP2 JUMPDEST POP POP POP POP POP DUP5 DUP3 DUP2 MLOAD DUP2 LT PUSH2 0x6D3 JUMPI PUSH2 0x6D2 PUSH2 0xDDF JUMP JUMPDEST JUMPDEST PUSH1 0x20 MUL PUSH1 0x20 ADD ADD DUP2 SWAP1 MSTORE POP PUSH1 0x0 DUP2 DUP2 SLOAD DUP2 LT PUSH2 0x6F2 JUMPI PUSH2 0x6F1 PUSH2 0xDDF JUMP JUMPDEST JUMPDEST SWAP1 PUSH1 0x0 MSTORE PUSH1 0x20 PUSH1 0x0 KECCAK256 SWAP1 PUSH1 0x2 MUL ADD PUSH1 0x1 ADD SLOAD DUP4 DUP3 DUP2 MLOAD DUP2 LT PUSH2 0x717 JUMPI PUSH2 0x716 PUSH2 0xDDF JUMP JUMPDEST JUMPDEST PUSH1 0x20 MUL PUSH1 0x20 ADD ADD DUP2 DUP2 MSTORE POP POP DUP1 DUP1 PUSH2 0x72E SWAP1 PUSH2 0x11DD JUMP JUMPDEST SWAP2 POP POP PUSH2 0x60A JUMP JUMPDEST POP POP SWAP1 SWAP2 JUMP JUMPDEST PUSH1 0x0 PUSH1 0x40 MLOAD SWAP1 POP SWAP1 JUMP JUMPDEST PUSH1 0x0 DUP1 REVERT JUMPDEST PUSH1 0x0 DUP1 REVERT JUMPDEST PUSH1 0x0 DUP2 SWAP1 POP SWAP2 SWAP1 POP JUMP JUMPDEST PUSH2 0x763 DUP2 PUSH2 0x750 JUMP JUMPDEST DUP2 EQ PUSH2 0x76E JUMPI PUSH1 0x0 DUP1 REVERT JUMPDEST POP JUMP JUMPDEST PUSH1 0x0 DUP2 CALLDATALOAD SWAP1 POP PUSH2 0x780 DUP2 PUSH2 0x75A JUMP JUMPDEST SWAP3 SWAP2 POP POP JUMP JUMPDEST PUSH1 0x0 PUSH1 0x20 DUP3 DUP5 SUB SLT ISZERO PUSH2 0x79C JUMPI PUSH2 0x79B PUSH2 0x746 JUMP JUMPDEST JUMPDEST PUSH1 0x0 PUSH2 0x7AA DUP5 DUP3 DUP6 ADD PUSH2 0x771 JUMP JUMPDEST SWAP2 POP POP SWAP3 SWAP2 POP POP JUMP JUMPDEST PUSH1 0x0 PUSH20 0xFFFFFFFFFFFFFFFFFFFFFFFFFFFFFFFFFFFFFFFF DUP3 AND SWAP1 POP SWAP2 SWAP1 POP JUMP JUMPDEST PUSH1 0x0 PUSH2 0x7DE DUP3 PUSH2 0x7B3 JUMP JUMPDEST SWAP1 POP SWAP2 SWAP1 POP JUMP JUMPDEST PUSH2 0x7EE DUP2 PUSH2 0x7D3 JUMP JUMPDEST DUP2 EQ PUSH2 0x7F9 JUMPI PUSH1 0x0 DUP1 REVERT JUMPDEST POP JUMP JUMPDEST PUSH1 0x0 DUP2 CALLDATALOAD SWAP1 POP PUSH2 0x80B DUP2 PUSH2 0x7E5 JUMP JUMPDEST SWAP3 SWAP2 POP POP JUMP JUMPDEST PUSH1 0x0 PUSH1 0x20 DUP3 DUP5 SUB SLT ISZERO PUSH2 0x827 JUMPI PUSH2 0x826 PUSH2 0x746 JUMP JUMPDEST JUMPDEST PUSH1 0x0 PUSH2 0x835 DUP5 DUP3 DUP6 ADD PUSH2 0x7FC JUMP JUMPDEST SWAP2 POP POP SWAP3 SWAP2 POP POP JUMP JUMPDEST PUSH1 0x0 DUP2 ISZERO ISZERO SWAP1 POP SWAP2 SWAP1 POP JUMP JUMPDEST PUSH2 0x853 DUP2 PUSH2 0x83E JUMP JUMPDEST DUP3 MSTORE POP POP JUMP JUMPDEST PUSH1 0x0 PUSH1 0x20 DUP3 ADD SWAP1 POP PUSH2 0x86E PUSH1 0x0 DUP4 ADD DUP5 PUSH2 0x84A JUMP JUMPDEST SWAP3 SWAP2 POP POP JUMP JUMPDEST PUSH1 0x0 DUP1 REVERT JUMPDEST PUSH1 0x0 DUP1 REVERT JUMPDEST PUSH1 0x0 PUSH1 0x1F NOT PUSH1 0x1F DUP4 ADD AND SWAP1 POP SWAP2 SWAP1 POP JUMP JUMPDEST PUSH32 0x4E487B7100000000000000000000000000000000000000000000000000000000 PUSH1 0x0 MSTORE PUSH1 0x41 PUSH1 0x4 MSTORE PUSH1 0x24 PUSH1 0x0 REVERT JUMPDEST PUSH2 0x8C7 DUP3 PUSH2 0x87E JUMP JUMPDEST DUP2 ADD DUP2 DUP2 LT PUSH8 0xFFFFFFFFFFFFFFFF DUP3 GT OR ISZERO PUSH2 0x8E6 JUMPI PUSH2 0x8E5 PUSH2 0x88F JUMP JUMPDEST JUMPDEST DUP1 PUSH1 0x40 MSTORE POP POP POP JUMP JUMPDEST PUSH1 0x0 PUSH2 0x8F9 PUSH2 0x73C JUMP JUMPDEST SWAP1 POP PUSH2 0x905 DUP3 DUP3 PUSH2 0x8BE JUMP JUMPDEST SWAP2 SWAP1 POP JUMP JUMPDEST PUSH1 0x0 PUSH8 0xFFFFFFFFFFFFFFFF DUP3 GT ISZERO PUSH2 0x925 JUMPI PUSH2 0x924 PUSH2 0x88F JUMP JUMPDEST JUMPDEST PUSH2 0x92E DUP3 PUSH2 0x87E JUMP JUMPDEST SWAP1 POP PUSH1 0x20 DUP2 ADD SWAP1 POP SWAP2 SWAP1 POP JUMP JUMPDEST DUP3 DUP2 DUP4 CALLDATACOPY PUSH1 0x0 DUP4 DUP4 ADD MSTORE POP POP POP JUMP JUMPDEST PUSH1 0x0 PUSH2 0x95D PUSH2 0x958 DUP5 PUSH2 0x90A JUMP JUMPDEST PUSH2 0x8EF JUMP JUMPDEST SWAP1 POP DUP3 DUP2 MSTORE PUSH1 0x20 DUP2 ADD DUP5 DUP5 DUP5 ADD GT ISZERO PUSH2 0x979 JUMPI PUSH2 0x978 PUSH2 0x879 JUMP JUMPDEST JUMPDEST PUSH2 0x984 DUP5 DUP3 DUP6 PUSH2 0x93B JUMP JUMPDEST POP SWAP4 SWAP3 POP POP POP JUMP JUMPDEST PUSH1 0x0 DUP3 PUSH1 0x1F DUP4 ADD SLT PUSH2 0x9A1 JUMPI PUSH2 0x9A0 PUSH2 0x874 JUMP JUMPDEST JUMPDEST DUP2 CALLDATALOAD PUSH2 0x9B1 DUP5 DUP3 PUSH1 0x20 DUP7 ADD PUSH2 0x94A JUMP JUMPDEST SWAP2 POP POP SWAP3 SWAP2 POP POP JUMP JUMPDEST PUSH1 0x0 PUSH1 0x20 DUP3 DUP5 SUB SLT ISZERO PUSH2 0x9D0 JUMPI PUSH2 0x9CF PUSH2 0x746 JUMP JUMPDEST JUMPDEST PUSH1 0x0 DUP3 ADD CALLDATALOAD PUSH8 0xFFFFFFFFFFFFFFFF DUP2 GT ISZERO PUSH2 0x9EE JUMPI PUSH2 0x9ED PUSH2 0x74B JUMP JUMPDEST JUMPDEST PUSH2 0x9FA DUP5 DUP3 DUP6 ADD PUSH2 0x98C JUMP JUMPDEST SWAP2 POP POP SWAP3 SWAP2 POP POP JUMP JUMPDEST PUSH1 0x0 DUP2 MLOAD SWAP1 POP SWAP2 SWAP1 POP JUMP JUMPDEST PUSH1 0x0 DUP3 DUP3 MSTORE PUSH1 0x20 DUP3 ADD SWAP1 POP SWAP3 SWAP2 POP POP JUMP JUMPDEST PUSH1 0x0 JUMPDEST DUP4 DUP2 LT ISZERO PUSH2 0xA3D JUMPI DUP1 DUP3 ADD MLOAD DUP2 DUP5 ADD MSTORE PUSH1 0x20 DUP2 ADD SWAP1 POP PUSH2 0xA22 JUMP JUMPDEST PUSH1 0x0 DUP5 DUP5 ADD MSTORE POP POP POP POP JUMP JUMPDEST PUSH1 0x0 PUSH2 0xA54 DUP3 PUSH2 0xA03 JUMP JUMPDEST PUSH2 0xA5E DUP2 DUP6 PUSH2 0xA0E JUMP JUMPDEST SWAP4 POP PUSH2 0xA6E DUP2 DUP6 PUSH1 0x20 DUP7 ADD PUSH2 0xA1F JUMP JUMPDEST PUSH2 0xA77 DUP2 PUSH2 0x87E JUMP JUMPDEST DUP5 ADD SWAP2 POP POP SWAP3 SWAP2 POP POP JUMP JUMPDEST PUSH2 0xA8B DUP2 PUSH2 0x750 JUMP JUMPDEST DUP3 MSTORE POP POP JUMP JUMPDEST PUSH1 0x0 PUSH1 0x40 DUP3 ADD SWAP1 POP DUP2 DUP2 SUB PUSH1 0x0 DUP4 ADD MSTORE PUSH2 0xAAB DUP2 DUP6 PUSH2 0xA49 JUMP JUMPDEST SWAP1 POP PUSH2 0xABA PUSH1 0x20 DUP4 ADD DUP5 PUSH2 0xA82 JUMP JUMPDEST SWAP4 SWAP3 POP POP POP JUMP JUMPDEST PUSH2 0xACA DUP2 PUSH2 0x7D3 JUMP JUMPDEST DUP3 MSTORE POP POP JUMP JUMPDEST PUSH1 0x0 PUSH1 0x20 DUP3 ADD SWAP1 POP PUSH2 0xAE5 PUSH1 0x0 DUP4 ADD DUP5 PUSH2 0xAC1 JUMP JUMPDEST SWAP3 SWAP2 POP POP JUMP JUMPDEST PUSH1 0x0 PUSH1 0x20 DUP3 ADD SWAP1 POP PUSH2 0xB00 PUSH1 0x0 DUP4 ADD DUP5 PUSH2 0xA82 JUMP JUMPDEST SWAP3 SWAP2 POP POP JUMP JUMPDEST PUSH1 0x0 DUP2 MLOAD SWAP1 POP SWAP2 SWAP1 POP JUMP JUMPDEST PUSH1 0x0 DUP3 DUP3 MSTORE PUSH1 0x20 DUP3 ADD SWAP1 POP SWAP3 SWAP2 POP POP JUMP JUMPDEST PUSH1 0x0 DUP2 SWAP1 POP PUSH1 0x20 DUP3 ADD SWAP1 POP SWAP2 SWAP1 POP JUMP JUMPDEST PUSH1 0x0 DUP3 DUP3 MSTORE PUSH1 0x20 DUP3 ADD SWAP1 POP SWAP3 SWAP2 POP POP JUMP JUMPDEST PUSH1 0x0 PUSH2 0xB4E DUP3 PUSH2 0xA03 JUMP JUMPDEST PUSH2 0xB58 DUP2 DUP6 PUSH2 0xB32 JUMP JUMPDEST SWAP4 POP PUSH2 0xB68 DUP2 DUP6 PUSH1 0x20 DUP7 ADD PUSH2 0xA1F JUMP JUMPDEST PUSH2 0xB71 DUP2 PUSH2 0x87E JUMP JUMPDEST DUP5 ADD SWAP2 POP POP SWAP3 SWAP2 POP POP JUMP JUMPDEST PUSH1 0x0 PUSH2 0xB88 DUP4 DUP4 PUSH2 0xB43 JUMP JUMPDEST SWAP1 POP SWAP3 SWAP2 POP POP JUMP JUMPDEST PUSH1 0x0 PUSH1 0x20 DUP3 ADD SWAP1 POP SWAP2 SWAP1 POP JUMP JUMPDEST PUSH1 0x0 PUSH2 0xBA8 DUP3 PUSH2 0xB06 JUMP JUMPDEST PUSH2 0xBB2 DUP2 DUP6 PUSH2 0xB11 JUMP JUMPDEST SWAP4 POP DUP4 PUSH1 0x20 DUP3 MUL DUP6 ADD PUSH2 0xBC4 DUP6 PUSH2 0xB22 JUMP JUMPDEST DUP1 PUSH1 0x0 JUMPDEST DUP6 DUP2 LT ISZERO PUSH2 0xC00 JUMPI DUP5 DUP5 SUB DUP10 MSTORE DUP2 MLOAD PUSH2 0xBE1 DUP6 DUP3 PUSH2 0xB7C JUMP JUMPDEST SWAP5 POP PUSH2 0xBEC DUP4 PUSH2 0xB90 JUMP JUMPDEST SWAP3 POP PUSH1 0x20 DUP11 ADD SWAP10 POP POP PUSH1 0x1 DUP2 ADD SWAP1 POP PUSH2 0xBC8 JUMP JUMPDEST POP DUP3 SWAP8 POP DUP8 SWAP6 POP POP POP POP POP POP SWAP3 SWAP2 POP POP JUMP JUMPDEST PUSH1 0x0 DUP2 MLOAD SWAP1 POP SWAP2 SWAP1 POP JUMP JUMPDEST PUSH1 0x0 DUP3 DUP3 MSTORE PUSH1 0x20 DUP3 ADD SWAP1 POP SWAP3 SWAP2 POP POP JUMP JUMPDEST PUSH1 0x0 DUP2 SWAP1 POP PUSH1 0x20 DUP3 ADD SWAP1 POP SWAP2 SWAP1 POP JUMP JUMPDEST PUSH2 0xC47 DUP2 PUSH2 0x750 JUMP JUMPDEST DUP3 MSTORE POP POP JUMP JUMPDEST PUSH1 0x0 PUSH2 0xC59 DUP4 DUP4 PUSH2 0xC3E JUMP JUMPDEST PUSH1 0x20 DUP4 ADD SWAP1 POP SWAP3 SWAP2 POP POP JUMP JUMPDEST PUSH1 0x0 PUSH1 0x20 DUP3 ADD SWAP1 POP SWAP2 SWAP1 POP JUMP JUMPDEST PUSH1 0x0 PUSH2 0xC7D DUP3 PUSH2 0xC12 JUMP JUMPDEST PUSH2 0xC87 DUP2 DUP6 PUSH2 0xC1D JUMP JUMPDEST SWAP4 POP PUSH2 0xC92 DUP4 PUSH2 0xC2E JUMP JUMPDEST DUP1 PUSH1 0x0 JUMPDEST DUP4 DUP2 LT ISZERO PUSH2 0xCC3 JUMPI DUP2 MLOAD PUSH2 0xCAA DUP9 DUP3 PUSH2 0xC4D JUMP JUMPDEST SWAP8 POP PUSH2 0xCB5 DUP4 PUSH2 0xC65 JUMP JUMPDEST SWAP3 POP POP PUSH1 0x1 DUP2 ADD SWAP1 POP PUSH2 0xC96 JUMP JUMPDEST POP DUP6 SWAP4 POP POP POP POP SWAP3 SWAP2 POP POP JUMP JUMPDEST PUSH1 0x0 PUSH1 0x40 DUP3 ADD SWAP1 POP DUP2 DUP2 SUB PUSH1 0x0 DUP4 ADD MSTORE PUSH2 0xCEA DUP2 DUP6 PUSH2 0xB9D JUMP JUMPDEST SWAP1 POP DUP2 DUP2 SUB PUSH1 0x20 DUP4 ADD MSTORE PUSH2 0xCFE DUP2 DUP5 PUSH2 0xC72 JUMP JUMPDEST SWAP1 POP SWAP4 SWAP3 POP POP POP JUMP JUMPDEST PUSH32 0x416C726561647920766F74656400000000000000000000000000000000000000 PUSH1 0x0 DUP3 ADD MSTORE POP JUMP JUMPDEST PUSH1 0x0 PUSH2 0xD3D PUSH1 0xD DUP4 PUSH2 0xA0E JUMP JUMPDEST SWAP2 POP PUSH2 0xD48 DUP3 PUSH2 0xD07 JUMP JUMPDEST PUSH1 0x20 DUP3 ADD SWAP1 POP SWAP2 SWAP1 POP JUMP JUMPDEST PUSH1 0x0 PUSH1 0x20 DUP3 ADD SWAP1 POP DUP2 DUP2 SUB PUSH1 0x0 DUP4 ADD MSTORE PUSH2 0xD6C DUP2 PUSH2 0xD30 JUMP JUMPDEST SWAP1 POP SWAP2 SWAP1 POP JUMP JUMPDEST PUSH32 0x496E76616C696420706172747920696E64657800000000000000000000000000 PUSH1 0x0 DUP3 ADD MSTORE POP JUMP JUMPDEST PUSH1 0x0 PUSH2 0xDA9 PUSH1 0x13 DUP4 PUSH2 0xA0E JUMP JUMPDEST SWAP2 POP PUSH2 0xDB4 DUP3 PUSH2 0xD73 JUMP JUMPDEST PUSH1 0x20 DUP3 ADD SWAP1 POP SWAP2 SWAP1 POP JUMP JUMPDEST PUSH1 0x0 PUSH1 0x20 DUP3 ADD SWAP1 POP DUP2 DUP2 SUB PUSH1 0x0 DUP4 ADD MSTORE PUSH2 0xDD8 DUP2 PUSH2 0xD9C JUMP JUMPDEST SWAP1 POP SWAP2 SWAP1 POP JUMP JUMPDEST PUSH32 0x4E487B7100000000000000000000000000000000000000000000000000000000 PUSH1 0x0 MSTORE PUSH1 0x32 PUSH1 0x4 MSTORE PUSH1 0x24 PUSH1 0x0 REVERT JUMPDEST PUSH32 0x4E487B7100000000000000000000000000000000000000000000000000000000 PUSH1 0x0 MSTORE PUSH1 0x11 PUSH1 0x4 MSTORE PUSH1 0x24 PUSH1 0x0 REVERT JUMPDEST PUSH1 0x0 PUSH2 0xE48 DUP3 PUSH2 0x750 JUMP JUMPDEST SWAP2 POP PUSH2 0xE53 DUP4 PUSH2 0x750 JUMP JUMPDEST SWAP3 POP DUP3 DUP3 ADD SWAP1 POP DUP1 DUP3 GT ISZERO PUSH2 0xE6B JUMPI PUSH2 0xE6A PUSH2 0xE0E JUMP JUMPDEST JUMPDEST SWAP3 SWAP2 POP POP JUMP JUMPDEST PUSH32 0x4F6E6C79206F776E657200000000000000000000000000000000000000000000 PUSH1 0x0 DUP3 ADD MSTORE POP JUMP JUMPDEST PUSH1 0x0 PUSH2 0xEA7 PUSH1 0xA DUP4 PUSH2 0xA0E JUMP JUMPDEST SWAP2 POP PUSH2 0xEB2 DUP3 PUSH2 0xE71 JUMP JUMPDEST PUSH1 0x20 DUP3 ADD SWAP1 POP SWAP2 SWAP1 POP JUMP JUMPDEST PUSH1 0x0 PUSH1 0x20 DUP3 ADD SWAP1 POP DUP2 DUP2 SUB PUSH1 0x0 DUP4 ADD MSTORE PUSH2 0xED6 DUP2 PUSH2 0xE9A JUMP JUMPDEST SWAP1 POP SWAP2 SWAP1 POP JUMP JUMPDEST PUSH32 0x4E487B7100000000000000000000000000000000000000000000000000000000 PUSH1 0x0 MSTORE PUSH1 0x22 PUSH1 0x4 MSTORE PUSH1 0x24 PUSH1 0x0 REVERT JUMPDEST PUSH1 0x0 PUSH1 0x2 DUP3 DIV SWAP1 POP PUSH1 0x1 DUP3 AND DUP1 PUSH2 0xF24 JUMPI PUSH1 0x7F DUP3 AND SWAP2 POP JUMPDEST PUSH1 0x20 DUP3 LT DUP2 SUB PUSH2 0xF37 JUMPI PUSH2 0xF36 PUSH2 0xEDD JUMP JUMPDEST JUMPDEST POP SWAP2 SWAP1 POP JUMP JUMPDEST PUSH1 0x0 DUP2 SWAP1 POP DUP2 PUSH1 0x0 MSTORE PUSH1 0x20 PUSH1 0x0 KECCAK256 SWAP1 POP SWAP2 SWAP1 POP JUMP JUMPDEST PUSH1 0x0 PUSH1 0x20 PUSH1 0x1F DUP4 ADD DIV SWAP1 POP SWAP2 SWAP1 POP JUMP JUMPDEST PUSH1 0x0 DUP3 DUP3 SHL SWAP1 POP SWAP3 SWAP2 POP POP JUMP JUMPDEST PUSH1 0x0 PUSH1 0x8 DUP4 MUL PUSH2 0xF9F PUSH32 0xFFFFFFFFFFFFFFFFFFFFFFFFFFFFFFFFFFFFFFFFFFFFFFFFFFFFFFFFFFFFFFFF DUP3 PUSH2 0xF62 JUMP JUMPDEST PUSH2 0xFA9 DUP7 DUP4 PUSH2 0xF62 JUMP JUMPDEST SWAP6 POP DUP1 NOT DUP5 AND SWAP4 POP DUP1 DUP7 AND DUP5 OR SWAP3 POP POP POP SWAP4 SWAP3 POP POP POP JUMP JUMPDEST PUSH1 0x0 DUP2 SWAP1 POP SWAP2 SWAP1 POP JUMP JUMPDEST PUSH1 0x0 PUSH2 0xFE6 PUSH2 0xFE1 PUSH2 0xFDC DUP5 PUSH2 0x750 JUMP JUMPDEST PUSH2 0xFC1 JUMP JUMPDEST PUSH2 0x750 JUMP JUMPDEST SWAP1 POP SWAP2 SWAP1 POP JUMP JUMPDEST PUSH1 0x0 DUP2 SWAP1 POP SWAP2 SWAP1 POP JUMP JUMPDEST PUSH2 0x1000 DUP4 PUSH2 0xFCB JUMP JUMPDEST PUSH2 0x1014 PUSH2 0x100C DUP3 PUSH2 0xFED JUMP JUMPDEST DUP5 DUP5 SLOAD PUSH2 0xF6F JUMP JUMPDEST DUP3 SSTORE POP POP POP POP JUMP JUMPDEST PUSH1 0x0 SWAP1 JUMP JUMPDEST PUSH2 0x1029 PUSH2 0x101C JUMP JUMPDEST PUSH2 0x1034 DUP2 DUP5 DUP5 PUSH2 0xFF7 JUMP JUMPDEST POP POP POP JUMP JUMPDEST JUMPDEST DUP2 DUP2 LT ISZERO PUSH2 0x1058 JUMPI PUSH2 0x104D PUSH1 0x0 DUP3 PUSH2 0x1021 JUMP JUMPDEST PUSH1 0x1 DUP2 ADD SWAP1 POP PUSH2 0x103A JUMP JUMPDEST POP POP JUMP JUMPDEST PUSH1 0x1F DUP3 GT ISZERO PUSH2 0x109D JUMPI PUSH2 0x106E DUP2 PUSH2 0xF3D JUMP JUMPDEST PUSH2 0x1077 DUP5 PUSH2 0xF52 JUMP JUMPDEST DUP2 ADD PUSH1 0x20 DUP6 LT ISZERO PUSH2 0x1086 JUMPI DUP2 SWAP1 POP JUMPDEST PUSH2 0x109A PUSH2 0x1092 DUP6 PUSH2 0xF52 JUMP JUMPDEST DUP4 ADD DUP3 PUSH2 0x1039 JUMP JUMPDEST POP POP JUMPDEST POP POP POP JUMP JUMPDEST PUSH1 0x0 DUP3 DUP3 SHR SWAP1 POP SWAP3 SWAP2 POP POP JUMP JUMPDEST PUSH1 0x0 PUSH2 0x10C0 PUSH1 0x0 NOT DUP5 PUSH1 0x8 MUL PUSH2 0x10A2 JUMP JUMPDEST NOT DUP1 DUP4 AND SWAP2 POP POP SWAP3 SWAP2 POP POP JUMP JUMPDEST PUSH1 0x0 PUSH2 0x10D9 DUP4 DUP4 PUSH2 0x10AF JUMP JUMPDEST SWAP2 POP DUP3 PUSH1 0x2 MUL DUP3 OR SWAP1 POP SWAP3 SWAP2 POP POP JUMP JUMPDEST PUSH2 0x10F2 DUP3 PUSH2 0xA03 JUMP JUMPDEST PUSH8 0xFFFFFFFFFFFFFFFF DUP2 GT ISZERO PUSH2 0x110B JUMPI PUSH2 0x110A PUSH2 0x88F JUMP JUMPDEST JUMPDEST PUSH2 0x1115 DUP3 SLOAD PUSH2 0xF0C JUMP JUMPDEST PUSH2 0x1120 DUP3 DUP3 DUP6 PUSH2 0x105C JUMP JUMPDEST PUSH1 0x0 PUSH1 0x20 SWAP1 POP PUSH1 0x1F DUP4 GT PUSH1 0x1 DUP2 EQ PUSH2 0x1153 JUMPI PUSH1 0x0 DUP5 ISZERO PUSH2 0x1141 JUMPI DUP3 DUP8 ADD MLOAD SWAP1 POP JUMPDEST PUSH2 0x114B DUP6 DUP3 PUSH2 0x10CD JUMP JUMPDEST DUP7 SSTORE POP PUSH2 0x11B3 JUMP JUMPDEST PUSH1 0x1F NOT DUP5 AND PUSH2 0x1161 DUP7 PUSH2 0xF3D JUMP JUMPDEST PUSH1 0x0 JUMPDEST DUP3 DUP2 LT ISZERO PUSH2 0x1189 JUMPI DUP5 DUP10 ADD MLOAD DUP3 SSTORE PUSH1 0x1 DUP3 ADD SWAP2 POP PUSH1 0x20 DUP6 ADD SWAP5 POP PUSH1 0x20 DUP2 ADD SWAP1 POP PUSH2 0x1164 JUMP JUMPDEST DUP7 DUP4 LT ISZERO PUSH2 0x11A6 JUMPI DUP5 DUP10 ADD MLOAD PUSH2 0x11A2 PUSH1 0x1F DUP10 AND DUP3 PUSH2 0x10AF JUMP JUMPDEST DUP4 SSTORE POP JUMPDEST PUSH1 0x1 PUSH1 0x2 DUP9 MUL ADD DUP9 SSTORE POP POP POP JUMPDEST POP POP POP POP POP POP JUMP JUMPDEST PUSH1 0x0 PUSH1 0x20 DUP3 ADD SWAP1 POP DUP2 DUP2 SUB PUSH1 0x0 DUP4 ADD MSTORE PUSH2 0x11D5 DUP2 DUP5 PUSH2 0xA49 JUMP JUMPDEST SWAP1 POP SWAP3 SWAP2 POP POP JUMP JUMPDEST PUSH1 0x0 PUSH2 0x11E8 DUP3 PUSH2 0x750 JUMP JUMPDEST SWAP2 POP PUSH32 0xFFFFFFFFFFFFFFFFFFFFFFFFFFFFFFFFFFFFFFFFFFFFFFFFFFFFFFFFFFFFFFFF DUP3 SUB PUSH2 0x121A JUMPI PUSH2 0x1219 PUSH2 0xE0E JUMP JUMPDEST JUMPDEST PUSH1 0x1 DUP3 ADD SWAP1 POP SWAP2 SWAP1 POP JUMP INVALID LOG2 PUSH5 0x6970667358 0x22 SLT KECCAK256 0xE3 0xB6 0x5D 0xC0 0xB3 0xA9 0xD1 PUSH32 0x59478E4D02FDA4B7A6A72EDF3D279B528500E6F009167EAA64736F6C63430008 SGT STOP CALLER "},"methodIdentifiers":{"addParty(string)":"5df3e271","getParties()":"a8311aa8","hasVoted(address)":"09eef43e","owner()":"8da5cb5b","parties(uint256)":"70651a18","partyCount()":"9eb8e725","vote(uint256)":"0121b93f"}}}}}