{
  "_format": "hh-sol-artifact-1",
  "contractName": "Voting",
  "sourceName": "contracts/Voting.sol",
  "abi": [
    {
      "inputs": [
        {
          "internalType": "string[]",
          "name": "_partyNames",
          "type": "string[]"
        }
      ],
      "stateMutability": "nonpayable",
      "type": "constructor"
    },
    {
      "anonymous": false,
      "inputs": [
        {
          "indexed": false,
          "internalType": "string",
          "name": "name",
          "type": "string"
        }
      ],
      "name": "PartyAdded",
      "type": "event"
    },
    {
      "anonymous": false,
      "inputs": [
        {
          "indexed": true,
          "internalType": "address",
          "name": "voter",
          "type": "address"
        },
        {
          "indexed": true,
          "internalType": "uint256",
          "name": "partyIndex",
          "type": "uint256"
        }
      ],
      "name": "Voted",
      "type": "event"
    },
    {
      "inputs": [
        {
          "internalType": "string",
          "name": "name",
          "type": "string"
        }
      ],
      "name": "addParty",
      "outputs": [],
      "stateMutability": "nonpayable",
      "type": "function"
    },
    {
      "inputs": [],
      "name": "getParties",
      "outputs": [
        {
          "internalType": "string[]",
          "name": "names",
          "type": "string[]"
        },
        {
          "internalType": "uint256[]",
          "name": "counts",
          "type": "uint256[]"
        }
      ],
      "stateMutability": "view",
      "type": "function"
    },
    {
      "inputs": [
        {
          "internalType": "address",
          "name": "",
          "type": "address"
        }
      ],
      "name": "hasVoted",
      "outputs": [
        {
          "internalType": "bool",
          "name": "",
          "type": "bool"
        }
      ],
      "stateMutability": "view",
      "type": "function"
    },
    {
      "inputs": [],
      "name": "owner",
      "outputs": [
        {
          "internalType": "address",
          "name": "",
          "type": "address"
        }
      ],
      "stateMutability": "view",
      "type": "function"
    },
    {
      "inputs": [
        {
          "internalType": "uint256",
          "name": "",
          "type": "uint256"
        }
      ],
      "name": "parties",
      "outputs": [
        {
          "internalType": "string",
          "name": "name",
          "type": "string"
        },
        {
          "internalType": "uint256",
          "name": "voteCount",
          "type": "uint256"
        }
      ],
      "stateMutability": "view",
      "type": "function"
    },
    {
      "inputs": [],
      "name": "partyCount",
      "outputs": [
        {
          "internalType": "uint256",
          "name": "",
          "type": "uint256"
        }
      ],
      "stateMutability": "view",
      "type": "function"
    },
    {
      "inputs": [
        {
          "internalType": "uint256",
          "name": "partyIndex",
          "type": "uint256"
        }
      ],
      "name": "vote",
      "outputs": [],
      "stateMutability": "nonpayable",
      "type": "function"
    }
  ],
  "bytecode": "0x60806040523480156200001157600080fd5b5060405162001b1938038062001b1983398181016040528101906200003791906200040a565b33600260006101000a81548173ffffffffffffffffffffffffffffffffffffffff021916908373ffffffffffffffffffffffffffffffffffffffff16021790555060005b8151811015620001735760006040518060400160405280848481518110620000a857620000a76200045b565b5b60200260200101518152602001600081525090806001815401808255809150506001900390600052602060002090600202016000909190919091506000820151816000019081620000fa9190620006d5565b506020820151816001015550507f4632f3a3551ffd73da26f49e84e2d47ed2e7304255f292ca21cab9a13722e9a88282815181106200013e576200013d6200045b565b5b60200260200101516040516200015591906200080e565b60405180910390a180806200016a9062000861565b9150506200007b565b5050620008ae565b6000604051905090565b600080fd5b600080fd5b600080fd5b6000601f19601f8301169050919050565b7f4e487b7100000000000000000000000000000000000000000000000000000000600052604160045260246000fd5b620001df8262000194565b810181811067ffffffffffffffff82111715620002015762000200620001a5565b5b80604052505050565b6000620002166200017b565b9050620002248282620001d4565b919050565b600067ffffffffffffffff821115620002475762000246620001a5565b5b602082029050602081019050919050565b600080fd5b600080fd5b600067ffffffffffffffff82111562000280576200027f620001a5565b5b6200028b8262000194565b9050602081019050919050565b60005b83811015620002b85780820151818401526020810190506200029b565b60008484015250505050565b6000620002db620002d58462000262565b6200020a565b905082815260208101848484011115620002fa57620002f96200025d565b5b6200030784828562000298565b509392505050565b600082601f8301126200032757620003266200018f565b5b815162000339848260208601620002c4565b91505092915050565b600062000359620003538462000229565b6200020a565b905080838252602082019050602084028301858111156200037f576200037e62000258565b5b835b81811015620003cd57805167ffffffffffffffff811115620003a857620003a76200018f565b5b808601620003b789826200030f565b8552602085019450505060208101905062000381565b5050509392505050565b600082601f830112620003ef57620003ee6200018f565b5b81516200040184826020860162000342565b91505092915050565b60006020828403121562000423576200042262000185565b5b600082015167ffffffffffffffff8111156200044457620004436200018a565b5b6200045284828501620003d7565b91505092915050565b7f4e487b7100000000000000000000000000000000000000000000000000000000600052603260045260246000fd5b600081519050919050565b7f4e487b7100000000000000000000000000000000000000000000000000000000600052602260045260246000fd5b60006002820490506001821680620004dd57607f821691505b602082108103620004f357620004f262000495565b5b50919050565b60008190508160005260206000209050919050565b60006020601f8301049050919050565b600082821b905092915050565b6000600883026200055d7fffffffffffffffffffffffffffffffffffffffffffffffffffffffffffffffff826200051e565b6200056986836200051e565b95508019841693508086168417925050509392505050565b6000819050919050565b6000819050919050565b6000620005b6620005b0620005aa8462000581565b6200058b565b62000581565b9050919050565b6000819050919050565b620005d28362000595565b620005ea620005e182620005bd565b8484546200052b565b825550505050565b600090565b62000601620005f2565b6200060e818484620005c7565b505050565b5b8181101562000636576200062a600082620005f7565b60018101905062000614565b5050565b601f82111562000685576200064f81620004f9565b6200065a846200050e565b810160208510156200066a578190505b6200068262000679856200050e565b83018262000613565b50505b505050565b600082821c905092915050565b6000620006aa600019846008026200068a565b1980831691505092915050565b6000620006c5838362000697565b9150826002028217905092915050565b620006e0826200048a565b67ffffffffffffffff811115620006fc57620006fb620001a5565b5b620007088254620004c4565b620007158282856200063a565b600060209050601f8311600181146200074d576000841562000738578287015190505b620007448582620006b7565b865550620007b4565b601f1984166200075d86620004f9565b60005b82811015620007875784890151825560018201915060208501945060208101905062000760565b86831015620007a75784890151620007a3601f89168262000697565b8355505b6001600288020188555050505b505050505050565b600082825260208201905092915050565b6000620007da826200048a565b620007e68185620007bc565b9350620007f881856020860162000298565b620008038162000194565b840191505092915050565b600060208201905081810360008301526200082a8184620007cd565b905092915050565b7f4e487b7100000000000000000000000000000000000000000000000000000000600052601160045260246000fd5b60006200086e8262000581565b91507fffffffffffffffffffffffffffffffffffffffffffffffffffffffffffffffff8203620008a357620008a262000832565b5b600182019050919050565b61125b80620008be6000396000f3fe608060405234801561001057600080fd5b506004361061007d5760003560e01c806370651a181161005b57806370651a18146100ea5780638da5cb5b1461011b5780639eb8e72514610139578063a8311aa8146101575761007d565b80630121b93f1461008257806309eef43e1461009e5780635df3e271146100ce575b600080fd5b61009c60048036038101906100979190610786565b610176565b005b6100b860048036038101906100b39190610811565b610325565b6040516100c59190610859565b60405180910390f35b6100e860048036038101906100e391906109ba565b610345565b005b61010460048036038101906100ff9190610786565b610472565b604051610112929190610a91565b60405180910390f35b61012361052e565b6040516101309190610ad0565b60405180910390f35b610141610554565b60405161014e9190610aeb565b60405180910390f35b61015f610560565b60405161016d929190610cd0565b60405180910390f35b600160003373ffffffffffffffffffffffffffffffffffffffff1673ffffffffffffffffffffffffffffffffffffffff16815260200190815260200160002060009054906101000a900460ff1615610203576040517f08c379a00000000000000000000000000000000000000000000000000000000081526004016101fa90610d53565b60405180910390fd5b600080549050811061024a576040517f08c379a000000000000000000000000000000000000000000000000000000000815260040161024190610dbf565b60405180910390fd5b60018060003373ffffffffffffffffffffffffffffffffffffffff1673ffffffffffffffffffffffffffffffffffffffff16815260200190815260200160002060006101000a81548160ff0219169083151502179055506001600082815481106102b7576102b6610ddf565b5b906000526020600020906002020160010160008282546102d79190610e3d565b92505081905550803373ffffffffffffffffffffffffffffffffffffffff167f4d99b957a2bc29a30ebd96a7be8e68fe50a3c701db28a91436490b7d53870ca460405160405180910390a350565b60016020528060005260406000206000915054906101000a900460ff1681565b600260009054906101000a900473ffffffffffffffffffffffffffffffffffffffff1673ffffffffffffffffffffffffffffffffffffffff163373ffffffffffffffffffffffffffffffffffffffff16146103d5576040517f08c379a00000000000000000000000000000000000000000000000000000000081526004016103cc90610ebd565b60405180910390fd5b6000604051806040016040528083815260200160008152509080600181540180825580915050600190039060005260206000209060020201600090919091909150600082015181600001908161042b91906110e9565b506020820151816001015550507f4632f3a3551ffd73da26f49e84e2d47ed2e7304255f292ca21cab9a13722e9a88160405161046791906111bb565b60405180910390a150565b6000818154811061048257600080fd5b90600052602060002090600202016000915090508060000180546104a590610f0c565b80601f01602080910402602001604051908101604052809291908181526020018280546104d190610f0c565b801561051e5780601f106104f35761010080835404028352916020019161051e565b820191906000526020600020905b81548152906001019060200180831161050157829003601f168201915b5050505050908060010154905082565b600260009054906101000a900473ffffffffffffffffffffffffffffffffffffffff1681565b60008080549050905090565b6060806000808054905090508067ffffffffffffffff8111156105865761058561088f565b5b6040519080825280602002602001820160405280156105b957816020015b60608152602001906001900390816105a45790505b5092508067ffffffffffffffff8111156105d6576105d561088f565b5b6040519080825280602002602001820160405280156106045781602001602082028036833780820191505090505b50915060005b81811015610736576000818154811061062657610625610ddf565b5b9060005260206000209060020201600001805461064290610f0c565b80601f016020809104026020016040519081016040528092919081815260200182805461066e90610f0c565b80156106bb5780601f10610690576101008083540402835291602001916106bb565b820191906000526020600020905b81548152906001019060200180831161069e57829003601f168201915b50505050508482815181106106d3576106d2610ddf565b5b6020026020010181905250600081815481106106f2576106f1610ddf565b5b90600052602060002090600202016001015483828151811061071757610716610ddf565b5b602002602001018181525050808061072e906111dd565b91505061060a565b50509091565b6000604051905090565b600080fd5b600080fd5b6000819050919050565b61076381610750565b811461076e57600080fd5b50565b6000813590506107808161075a565b92915050565b60006020828403121561079c5761079b610746565b5b60006107aa84828501610771565b91505092915050565b600073ffffffffffffffffffffffffffffffffffffffff82169050919050565b60006107de826107b3565b9050919050565b6107ee816107d3565b81146107f957600080fd5b50565b60008135905061080b816107e5565b92915050565b60006020828403121561082757610826610746565b5b6000610835848285016107fc565b91505092915050565b60008115159050919050565b6108538161083e565b82525050565b600060208201905061086e600083018461084a565b92915050565b600080fd5b600080fd5b6000601f19601f8301169050919050565b7f4e487b7100000000000000000000000000000000000000000000000000000000600052604160045260246000fd5b6108c78261087e565b810181811067ffffffffffffffff821117156108e6576108e561088f565b5b80604052505050565b60006108f961073c565b905061090582826108be565b919050565b600067ffffffffffffffff8211156109255761092461088f565b5b61092e8261087e565b9050602081019050919050565b82818337600083830152505050565b600061095d6109588461090a565b6108ef565b90508281526020810184848401111561097957610978610879565b5b61098484828561093b565b509392505050565b600082601f8301126109a1576109a0610874565b5b81356109b184826020860161094a565b91505092915050565b6000602082840312156109d0576109cf610746565b5b600082013567ffffffffffffffff8111156109ee576109ed61074b565b5b6109fa8482850161098c565b91505092915050565b600081519050919050565b600082825260208201905092915050565b60005b83811015610a3d578082015181840152602081019050610a22565b60008484015250505050565b6000610a5482610a03565b610a5e8185610a0e565b9350610a6e818560208601610a1f565b610a778161087e565b840191505092915050565b610a8b81610750565b82525050565b60006040820190508181036000830152610aab8185610a49565b9050610aba6020830184610a82565b9392505050565b610aca816107d3565b82525050565b6000602082019050610ae56000830184610ac1565b92915050565b6000602082019050610b006000830184610a82565b92915050565b600081519050919050565b600082825260208201905092915050565b6000819050602082019050919050565b600082825260208201905092915050565b6000610b4e82610a03565b610b588185610b32565b9350610b68818560208601610a1f565b610b718161087e565b840191505092915050565b6000610b888383610b43565b905092915050565b6000602082019050919050565b6000610ba882610b06565b610bb28185610b11565b935083602082028501610bc485610b22565b8060005b85811015610c005784840389528151610be18582610b7c565b9450610bec83610b90565b925060208a01995050600181019050610bc8565b50829750879550505050505092915050565b600081519050919050565b600082825260208201905092915050565b6000819050602082019050919050565b610c4781610750565b82525050565b6000610c598383610c3e565b60208301905092915050565b6000602082019050919050565b6000610c7d82610c12565b610c878185610c1d565b9350610c9283610c2e565b8060005b83811015610cc3578151610caa8882610c4d565b9750610cb583610c65565b925050600181019050610c96565b5085935050505092915050565b60006040820190508181036000830152610cea8185610b9d565b90508181036020830152610cfe8184610c72565b90509392505050565b7f416c726561647920766f74656400000000000000000000000000000000000000600082015250565b6000610d3d600d83610a0e565b9150610d4882610d07565b602082019050919050565b60006020820190508181036000830152610d6c81610d30565b9050919050565b7f496e76616c696420706172747920696e64657800000000000000000000000000600082015250565b6000610da9601383610a0e565b9150610db482610d73565b602082019050919050565b60006020820190508181036000830152610dd881610d9c565b9050919050565b7f4e487b7100000000000000000000000000000000000000000000000000000000600052603260045260246000fd5b7f4e487b7100000000000000000000000000000000000000000000000000000000600052601160045260246000fd5b6000610e4882610750565b9150610e5383610750565b9250828201905080821115610e6b57610e6a610e0e565b5b92915050565b7f4f6e6c79206f776e657200000000000000000000000000000000000000000000600082015250565b6000610ea7600a83610a0e565b9150610eb282610e71565b602082019050919050565b60006020820190508181036000830152610ed681610e9a565b9050919050565b7f4e487b7100000000000000000000000000000000000000000000000000000000600052602260045260246000fd5b60006002820490506001821680610f2457607f821691505b602082108103610f3757610f36610edd565b5b50919050565b60008190508160005260206000209050919050565b60006020601f8301049050919050565b600082821b905092915050565b600060088302610f9f7fffffffffffffffffffffffffffffffffffffffffffffffffffffffffffffffff82610f62565b610fa98683610f62565b95508019841693508086168417925050509392505050565b6000819050919050565b6000610fe6610fe1610fdc84610750565b610fc1565b610750565b9050919050565b6000819050919050565b61100083610fcb565b61101461100c82610fed565b848454610f6f565b825550505050565b600090565b61102961101c565b611034818484610ff7565b505050565b5b818110156110585761104d600082611021565b60018101905061103a565b5050565b601f82111561109d5761106e81610f3d565b61107784610f52565b81016020851015611086578190505b61109a61109285610f52565b830182611039565b50505b505050565b600082821c905092915050565b60006110c0600019846008026110a2565b1980831691505092915050565b60006110d983836110af565b9150826002028217905092915050565b6110f282610a03565b67ffffffffffffffff81111561110b5761110a61088f565b5b6111158254610f0c565b61112082828561105c565b600060209050601f8311600181146111535760008415611141578287015190505b61114b85826110cd565b8655506111b3565b601f19841661116186610f3d565b60005b8281101561118957848901518255600182019150602085019450602081019050611164565b868310156111a657848901516111a2601f8916826110af565b8355505b6001600288020188555050505b505050505050565b600060208201905081810360008301526111d58184610a49565b905092915050565b60006111e882610750565b91507fffffffffffffffffffffffffffffffffffffffffffffffffffffffffffffffff820361121a57611219610e0e565b5b60018201905091905056fea2646970667358221220e3b65dc0b3a9d17f59478e4d02fda4b7a6a72edf3d279b528500e6f009167eaa64736f6c63430008130033",
  "linkReferences": {},
  "deployedLinkReferences": {}
}